:100000000C9466000C9483000C9483000C94830081
:100010000C9483000C9483000C9483000C94830054
:100020000C9483000C9483000C9483000C94830044
:100030000C9483000C9483000C9483000C94830034
:100040000C942F020C9483000C9483000C94830076
:100050000C9483000C9483000C9483000C94830014
:100060000C9483000C9483001112131415160A0BC0
:100070000C0D0E0F00010203040500000008000231
:100080000100000304070000000000000000000061
:100090000000250028002B0000000000240027009D
:1000A0002A000404040404040404020202020202FA
:1000B000030303030303010204081020408001022C
:1000C00004081020010204081020330411241FBE6C
:1000D000CFEFD8E0DEBFCDBF21E0A0E0B1E001C0AE
:1000E0001D92A232B207E1F710E0C6E6D0E004C0EC
:1000F0002197FE010E944D04C536D107C9F70E9421
:1001000079020C9453040C94000090E0FC01EA5432
:10011000FF4F2491FC01EE55FF4F8491882399F005
:1001200090E0880F991FFC01E856FF4FA591B4910C
:10013000FC01E257FF4F859194918FB7F894EC91B1
:10014000E22BEC938FBF089590E0FC01E658FF4F3F
:100150003491FC01EA54FF4F2491FC01EE55FF4F0E
:10016000E491EE2309F43BC0332339F1333091F0AD
:1001700038F43130A9F0323001F584B58F7D12C0EA
:10018000373091F03830A1F03430B9F480918000EC
:100190008F7D03C0809180008F77809380000DC099
:1001A00084B58F7784BD09C08091B0008F7703C07C
:1001B0008091B0008F7D8093B000F0E0EE0FFF1FC4
:1001C000E257FF4FA591B4918FB7F894EC9161116C
:1001D00003C020952E2301C02E2B2C938FBF089592
:1001E0003FB7F8948091060190910701A091080112
:1001F000B091090126B5A89B05C02F3F19F00196C3
:10020000A11DB11D3FBFBA2FA92F982F8827820F9C
:10021000911DA11DB11DBC01CD0142E0660F771FEC
:10022000881F991F4A95D1F708958F929F92AF9298
:10023000BF92CF92DF92EF92FF920E94F0004B01AB
:100240005C0185E0C82ED12CE12CF12C0E94F0003D
:10025000DC01CB0188199909AA09BB09883E9340A2
:10026000A105B10558F021E0C21AD108E108F10852
:1002700088EE880E83E0981EA11CB11CC114D10425
:10028000E104F10419F7FF90EF90DF90CF90BF9059
:10029000AF909F908F9008958EBD00000DB407FE23
:1002A000FDCF8EB508959CB59F7D9CBD9CB5937F79
:1002B0009CBD9CB59C7F9CBD9DB591609DBD682FEC
:1002C00080910C010E94A40080911E0190911F0159
:1002D0008230910538F0880F991F880F991F059774
:1002E0000197F1F7089580E00C9453011F93CF9389
:1002F000DF931F92CDB7DEB789830E947301898196
:100300008F710E944C018FEF0E944C01182F81E0E9
:100310000E945301812F0F90DF91CF911F9108957B
:100320001F93CF93DF9300D0CDB7DEB76A83898365
:100330000E94730189818F7180620E944C01182F85
:100340006A81862F0E944C0181E00E945301812F17
:100350000F900F90DF91CF911F91089580E00E9440
:10036000760181FD07C0682F626080E00E949001E5
:100370000C94150108950F931F93CF938C0186E081
:100380000E947601C82FC77D0230110531F4C0628A
:100390008BE990E0A0E0B0E00DC00130110529F03C
:1003A00085E590E0A0E0B0E005C0C86081E490E0A1
:1003B000A0E0B0E080931A0190931B01A0931C0170
:1003C000B0931D016C2F86E00E94900186E00E9490
:1003D000760191E08C1390E0892FCF911F910F91BE
:1003E0000895CF930E94730181EE0E944C01C82FA3
:1003F00081E00E9453018C2FCF910895EF92FF92DC
:100400000F931F93CF93DF9300D01F92CDB7DEB72A
:10041000162F4A837B8389830E94730189818F71A0
:1004200080620E944C01082FE12E7B81F72E4A81C9
:10043000140F1E1531F0F70181917F010E944C01CC
:10044000F8CF81E00E945301802F0F900F900F9002
:10045000DF91CF911F910F91FF90EF9008951F9220
:100460000F920FB60F9211242F933F938F939F9368
:10047000AF93BF938091020190910301A091040179
:10048000B09105013091010123E0230F2D3720F4B5
:100490000196A11DB11D05C026E8230F0296A11DDE
:1004A000B11D209301018093020190930301A09359
:1004B0000401B09305018091060190910701A0917C
:1004C0000801B09109010196A11DB11D809306019B
:1004D00090930701A0930801B0930901BF91AF91D8
:1004E0009F918F913F912F910F900FBE0F901F9072
:1004F0001895CF93DF93CDB7DEB72A970FB6F89450
:10050000DEBF0FBECDBF789484B5826084BD84B554
:10051000816084BD85B5826085BD85B5816085BDFE
:1005200080916E00816080936E00109281008091B6
:10053000810082608093810080918100816080933E
:100540008100809180008160809380008091B10063
:1005500084608093B1008091B00081608093B0008E
:1005600080917A00846080937A0080917A00826022
:1005700080937A0080917A00816080937A008091E4
:100580007A00806880937A001092C1008AB18C6FE3
:100590008AB987B18F6087B980910A0190910B0168
:1005A00020910C0130910D018217930711F00E94E8
:1005B000850080910C0190910D0120910A013091EC
:1005C0000B012817390711F00E9485001FB7F89416
:1005D00080910001811124C0ECEAF0E08491E0EC0C
:1005E000F0E09491E82FF0E0EE0FFF1FE856FF4F88
:1005F000A591B491EC91E92321F461E08AE00E9495
:10060000A4008AE00E9485008CB580618CBD8CB509
:1006100080648CBD8DE00E9485008BE00E94850087
:10062000809100018F5F809300011FBF80910A01BC
:1006300090910B0120910C0130910D0182179307CD
:1006400019F060E00E94A40081E00E9453010E9422
:1006500015016CE080E00E9490016FE584E00E944B
:10066000900182E090E00E94BB01882319F081E0B4
:100670008093100186E00E94760180E090E00E9465
:10068000BB010E94730180E50E944C0183E70E9438
:100690004C0181E00E94530160E08DE10E949001D5
:1006A00060E08CE10E9490011092120160E787E007
:1006B0000E9490016CE485E00E9490010E94730109
:1006C00082EE0E944C0181E00E9453010E94F101E0
:1006D0000E94AE0180E00E947601682F6E7F80E06C
:1006E0000E94900182E08093110161E083E00E940A
:1006F000900183E08093180162E385E00E949001FD
:1007000081E090E00E94BB0161E084E00E949001E2
:100710008FEE89831A821B821C821D821E821F8299
:100720001886EFE6F0E0849140911801BE016F5FFA
:100730007F4F0E94FE01E9E6F0E084916091110193
:100740000E94900182E00E947601E5E7F0E0E491EA
:1007500061E070E001C0660FEA95EAF7682B82E07D
:100760000E9490010E94AE0180E00E947601682FF5
:10077000616080E00E94900160E787E00E94900144
:1007800080910A0190910B0120910C0130910D0193
:100790008217930719F061E00E94A4008091130171
:1007A000882341F04091180163E171E08AE00E94E2
:1007B000FE0112C082E00E947601E4E7F0E0E491DD
:1007C00021E030E001C0220FEA95EAF72095622F80
:1007D000682382E00E9490018DE10E94760181FDF4
:1007E0000E94F10180E0C82E80E0D82E87E10E94AF
:1007F000760180FF12C00BC081E00E94530160E7C8
:1008000087E00E949001898588B98A858BB9C114D7
:10081000D10461F30E940000E9CF10911101123060
:1008200000F102E080911201811102C0101B01C091
:1008300010E00E94730181E60E944C01CE010996EE
:100840007C01015038F08FEF0E944C01F701819339
:100850007F01F7CF112381F28FEF0E944C011150DD
:10086000F9CF012FDFCFEAE0F1E089E090E091835A
:1008700080838AE090E093838283168280E287837C
:10088000108685E0868785E090E0A0E0B0E0848B6C
:10089000958BA68BB78B11860895EE0FFF1F0590E1
:0A08A000F491E02D0994F894FFCFC5
:00000001FF
