:100000000C9466000C9429020C9402020C948E004D
:100010000C948E000C948E000C948E000C948E0028
:100020000C948E000C948E000C948E000C948E0018
:100030000C948E000C948E000C948E000C948E0008
:100040000C94B8010C948E000C948E000C948E00CD
:100050000C948E000C948E000C948E000C948E00E8
:100060000C948E000C948E001112131415160A0BAA
:100070000C0D0E0F00010203040500000000240017
:1000800027002A0000000000250028002B0004049F
:100090000404040404040202020202020303030330
:1000A000030301020408102040800102040810200C
:1000B00001020408102000000008000201000003F3
:1000C000040700000000000000009C0311241FBE74
:1000D000CFEFD8E0DEBFCDBF21E0A8E0B1E001C0A6
:1000E0001D92A932B207E1F711E0A0E0B1E0ECE720
:1000F000F7E002C005900D92A830B107D9F710E0E3
:10010000C6E6D0E004C02197FE010E94B603C536C2
:10011000D107C9F70E9450020C94BC030C94000054
:1001200090E0FC01EA54FF4F3491FC01EE55FF4F83
:100130002491FC01E257FF4FE491EE2309F43BC008
:10014000332339F1333091F038F43130A9F03230C3
:1001500001F584B58F7D12C0373091F03830A1F0B1
:100160003430B9F4809180008F7D03C0809180008D
:100170008F77809380000DC084B58F7784BD09C0D0
:100180008091B0008F7703C08091B0008F7D809305
:10019000B000F0E0EE0FFF1FEC57FF4FA591B491B8
:1001A0008FB7F894EC91611103C020952E2301C004
:1001B0002E2B2C938FBF08953FB7F89480910D019B
:1001C00090910E01A0910F01B091100126B5A89B4E
:1001D00005C02F3F19F00196A11DB11D3FBFBA2FD9
:1001E000A92F982F8827820F911DA11DB11DBC0139
:1001F000CD0142E0660F771F881F991F4A95D1F7FE
:10020000089508958EBD00000DB407FEFDCF8EB594
:1002100008959CB59F7D9CBD9CB5937F9CBD9CB56E
:100220009C7F9CBD9DB591609DBD682F8091130101
:100230000E949000809125019091260182309105C5
:1002400038F0880F991F880F991F05970197F1F7CC
:1002500008951F93CF93DF931F92CDB7DEB7182F6A
:1002600080E069830E940901812F8F7180620E9462
:100270000201182F6981862F0E94020181E00E94ED
:100280000901812F0F90DF91CF911F910895CF9396
:10029000C82F80E00E9409018C2F8F710E940201FB
:1002A0008FEF0E940201C82F81E00E9409018C2F6C
:1002B000CF910895EF92FF920F931F93CF93DF9307
:1002C00000D0CDB7DEB7082F162F80E049837A83A0
:1002D0000E940901802F8F7180620E940201082F05
:1002E000E12E7A81F72E4981140F1E1531F0F701A6
:1002F00081917F010E940201F8CF81E00E940901F3
:10030000802F0F900F90DF91CF911F910F91FF9051
:10031000EF900895CF93DF93C0911801D1E0C11100
:1003200001C0D0E080911901811102C0CD1B01C034
:10033000C0E080E00E94090181E60E940201DD2305
:1003400029F08FEF0E94020180930000CC2329F056
:100350008FEF0E940201C150F9CF81E00E94090194
:1003600060E787E00E94290118B8DF91CF910895D6
:100370001F920F920FB60F9211242F933F938F93DA
:100380009F93AF93BF938091090190910A01A0912F
:100390000B01B0910C013091080123E0230F2D37A0
:1003A00020F40196A11DB11D05C026E8230F029679
:1003B000A11DB11D209308018093090190930A01AA
:1003C000A0930B01B0930C0180910D0190910E014F
:1003D000A0910F01B09110010196A11DB11D809354
:1003E0000D0190930E01A0930F01B0931001BF91E6
:1003F000AF919F918F913F912F910F900FBE0F90D2
:100400001F9018951F920F920FB60F9211242F93E1
:100410003F934F935F936F937F938F939F93AF938C
:10042000BF93EF93FF93E0910201F09103010995CF
:10043000FF91EF91BF91AF919F918F917F916F91BC
:100440005F914F913F912F910F900FBE0F901F9092
:1004500018951F920F920FB60F9211242F933F936E
:100460004F935F936F937F938F939F93AF93BF93BC
:10047000EF93FF93E0910001F09101010995FF9145
:10048000EF91BF91AF919F918F917F916F915F910C
:100490004F913F912F910F900FBE0F901F90189585
:1004A000789484B5826084BD84B5816084BD85B54F
:1004B000826085BD85B5816085BD80916E0081605B
:1004C00080936E0010928100809181008260809301
:1004D0008100809181008160809381008091800003
:1004E0008160809380008091B10084608093B1002E
:1004F0008091B00081608093B00080917A00846028
:1005000080937A0080917A00826080937A00809153
:100510007A00816080937A0080917A00806880936D
:100520007A001092C1008AB1836F8AB987B18F6057
:1005300087B961E083E00E94290183E080931F0175
:1005400062E385E00E94290186E00E944701877DE1
:1005500041E450E060E070E04093210150932201BB
:100560006093230170932401682F686086E00E94E5
:10057000290186E00E94470161E084E00E94290190
:1005800080E00E944701837F682F686080E00E94BE
:10059000290180E00E9447018F78682F606380E026
:1005A0000E942901EFE6F0E0849140911F0164E090
:1005B00071E00E945A01E9E6F0E08491609118012F
:1005C0000E94290182E00E944701E5E7F0E0E49102
:1005D00061E070E001C0660FEA95EAF7682B82E0FF
:1005E0000E94290180E00E94470181FD2BC0682FF5
:1005F000626080E00E9429010E94DC004B015C01E6
:1006000045E0C42ED12CE12CF12C0E94DC00DC0151
:10061000CB0188199909AA09BB09883E9340A10515
:10062000B10558F021E0C21AD108E108F10888EEBE
:10063000880E83E0981EA11CB11CC114D104E104F2
:10064000F10419F780E00E944701682F616080E0A3
:100650000E94290160E787E00E9429018091110131
:100660009091120120911301309114018217930788
:1006700019F061E00E94900080911A01882341F0F6
:1006800040911F016AE171E08AE00E945A0112C0A4
:1006900082E00E944701E4E7F0E0E49121E030E0ED
:1006A00001C0220FEA95EAF72095622F682382E0C5
:1006B0000E9429018DE10E94470181FF09C080E06D
:1006C0000E94090181EE0E94020181E00E9409015D
:1006D000E4EAF0E02491E0E9F0E084918823C1F0BD
:1006E00090E0880F991FFC01E658FF4FC591D49107
:1006F000FC01EC57FF4FA591B4919FB7F894388156
:10070000822F809583238883EC91E22BEC939FBF0B
:100710008AE891E090930101809300018091690043
:100720008C7F826080936900E89AC0E0D0E02097D7
:10073000F1F30E940000FBCFE1E1F1E089E090E0FD
:10074000918380838AE090E093838283168280E2A3
:100750008783108685E0868785E090E0A0E0B0E0A2
:10076000848B958BA68BB78B11860895EE0FFF1F98
:0C0770000590F491E02D0994F894FFCF5F
:08077C0001010101434E43009D
:00000001FF
