:100000000C9466000C948E000C948E000C948E0060
:100010000C948E000C948E000C948E000C948E0028
:100020000C948E000C948E000C948E000C948E0018
:100030000C948E000C948E000C948E000C948E0008
:100040000C943A020C948E000C948E000C948E004A
:100050000C948E000C948E000C948E000C948E00E8
:100060000C948E000C948E001112131415160A0BAA
:100070000C0D0E0F00010203040500000008000231
:100080000100000304070000000000000000000061
:100090000000250028002B0000000000240027009D
:1000A0002A000404040404040404020202020202FA
:1000B000030303030303010204081020408001022C
:1000C000040810200102040810202F0411241FBE70
:1000D000CFEFD8E0DEBFCDBF21E0A4E0B1E001C0AA
:1000E0001D92A632B207E1F711E0A0E0B1E0E2EA2A
:1000F000F8E002C005900D92A430B107D9F710E0E6
:10010000C6E6D0E004C02197FE010E944904C5362E
:10011000D107C9F70E9484020C944F040C9400008C
:1001200090E0FC01EA54FF4F2491FC01EE55FF4F93
:100130008491882399F090E0880F991FFC01E8567C
:10014000FF4FA591B491FC01E257FF4F8591949127
:100150008FB7F894EC91E22BEC938FBF089590E069
:10016000FC01E658FF4F3491FC01EA54FF4F249103
:10017000FC01EE55FF4FE491EE2309F43BC033231D
:1001800039F1333091F038F43130A9F0323001F5E3
:1001900084B58F7D12C0373091F03830A1F0343003
:1001A000B9F4809180008F7D03C0809180008F77AB
:1001B000809380000DC084B58F7784BD09C0809185
:1001C000B0008F7703C08091B0008F7D8093B00026
:1001D000F0E0EE0FFF1FE257FF4FA591B4918FB7EC
:1001E000F894EC91611103C020952E2301C02E2BB1
:1001F0002C938FBF08953FB7F89480910A01909196
:100200000B01A0910C01B0910D0126B5A89B05C072
:100210002F3F19F00196A11DB11D3FBFBA2FA92F85
:10022000982F8827820F911DA11DB11DBC01CD0102
:1002300042E0660F771F881F991F4A95D1F70895EE
:100240008F929F92AF92BF92CF92DF92EF92FF92E6
:100250000E94FB004B015C0185E0C82ED12CE12CF3
:10026000F12C0E94FB00DC01CB0188199909AA0935
:10027000BB09883E9340A105B10558F021E0C21AA0
:10028000D108E108F10888EE880E83E0981EA11CD1
:10029000B11CC114D104E104F10419F7FF90EF90EF
:1002A000DF90CF90BF90AF909F908F9008958EBDBC
:1002B00000000DB407FEFDCF8EB508959CB59F7D5F
:1002C0009CBD9CB5937F9CBD9CB59C7F9CBD9DB502
:1002D00091609DBD682F809110010E94AF008091B8
:1002E0002201909123018230910538F0880F991FE7
:1002F000880F991F05970197F1F7089580E00C94F6
:100300005E011F93CF93DF931F92CDB7DEB7898332
:100310000E947E0189818F710E9457018FEF0E9498
:100320005701182F81E00E945E01812F0F90DF910D
:10033000CF911F9108951F93CF93DF9300D0CDB736
:10034000DEB76A8389830E947E0189818F71806212
:100350000E945701182F6A81862F0E94570181E061
:100360000E945E01812F0F900F90DF91CF911F911E
:10037000089580E00E94810181FD07C0682F6260BE
:1003800080E00E949B010C94200108950F931F931D
:10039000CF938C0186E00E948101C82FC77D023077
:1003A000110531F4C0628BE990E0A0E0B0E00DC02F
:1003B0000130110529F085E590E0A0E0B0E005C02E
:1003C000C86081E490E0A0E0B0E080931E019093CB
:1003D0001F01A0932001B09321016C2F86E00E94A1
:1003E0009B0186E00E94810191E08C1390E0892FAF
:1003F000CF911F910F910895CF930E947E0181EEBE
:100400000E945701C82F81E00E945E018C2FCF917E
:100410000895EF92FF920F931F93CF93DF9300D035
:100420001F92CDB7DEB7162F4A837B8389830E9444
:100430007E0189818F7180620E945701082FE12E11
:100440007B81F72E4A81140F1E1531F0F70181913F
:100450007F010E945701F8CF81E00E945E01802F4A
:100460000F900F900F90DF91CF911F910F91FF9000
:10047000EF9008951F920F920FB60F9211242F93B1
:100480003F938F939F93AF93BF9380910601909179
:100490000701A0910801B09109013091050123E005
:1004A000230F2D3720F40196A11DB11D05C026E8AC
:1004B000230F0296A11DB11D209305018093060113
:1004C00090930701A0930801B093090180910A015C
:1004D00090910B01A0910C01B0910D010196A11D0D
:1004E000B11D80930A0190930B01A0930C01B0936E
:1004F0000D01BF91AF919F918F913F912F910F90DF
:100500000FBE0F901F901895CF93DF9300D0CDB7FB
:10051000DEB7789484B5826084BD84B5816084BD83
:1005200085B5826085BD85B5816085BD80916E0091
:10053000816080936E0010928100809181008260C2
:1005400080938100809181008160809381008091FF
:1005500080008160809380008091B10084608093EE
:10056000B1008091B00081608093B00080917A00EA
:10057000846080937A0080917A00826080937A0010
:1005800080917A00816080937A0080917A008068FF
:1005900080937A001092C1008AB18C6F8AB987B1BA
:1005A0008F6087B980910E0190910F012091100109
:1005B000309111018217930711F00E9490008091F1
:1005C00010019091110120910E0130910F01281717
:1005D000390711F00E9490001FB7F8948091040130
:1005E000811124C0ECEAF0E08491E0ECF0E0949119
:1005F000E82FF0E0EE0FFF1FE856FF4FA591B491F2
:10060000EC91E92321F461E08AE00E94AF008AE0E6
:100610000E9490008CB580618CBD8CB580648CBDCF
:100620008DE00E9490008BE00E9490008091040178
:100630008F5F809304011FBF80910E0190910F0185
:1006400020911001309111018217930719F060E099
:100650000E94AF0081E00E945E010E9420016CE0D8
:1006600080E00E949B016FE584E00E949B0182E094
:1006700090E00E94C601882319F081E08093140164
:1006800086E00E94810180E090E00E94C6010E9405
:100690007E0180E50E94570183E70E94570181E0B7
:1006A0000E945E0160E08DE10E949B0160E08CE1B0
:1006B0000E949B011092160160E787E00E949B0157
:1006C0006CE485E00E949B010E947E0182EE0E9404
:1006D000570181E00E945E010E94FC010E94B90165
:1006E00080E00E948101682F6E7F80E00E949B0164
:1006F00082E08093150161E083E00E949B0183E02A
:1007000080931C0162E385E00E949B0181E090E000
:100710000E94C60161E084E00E949B01EFE6F0E0E8
:10072000849140911C0160E071E00E940902E9E6B9
:10073000F0E08491609115010E949B0182E00E948B
:100740008101E5E7F0E0E49161E070E001C0660F4F
:10075000EA95EAF7682B82E00E949B010E94B901AA
:1007600080E00E948101682F616080E00E949B010F
:1007700060E787E00E949B0180910E0190910F013C
:1007800020911001309111018217930719F061E057
:100790000E94AF0080911701882341F040911C0115
:1007A00067E171E08AE00E94090212C082E00E94C3
:1007B0008101E4E7F0E0E49121E030E001C0220FA4
:1007C000EA95EAF72095622F682382E00E949B0158
:1007D0008DE10E94810181FD0E94FC0180E0C82E14
:1007E00080E0D82E87E10E94810180FF12C00BC0FB
:1007F00081E00E945E0160E787E00E949B018981A1
:1008000088B98A818BB9C114D10461F30E940000B8
:10081000E9CF10911501123000F102E0809116012C
:10082000811102C0101B01C010E00E947E0181E610
:100830000E945701CE0101967C01015038F08FEFE4
:100840000E945701F70181937F01F7CF112381F2B5
:100850008FEF0E9457011150F9CF012FDFCFEEE04B
:10086000F1E089E090E0918380838AE090E09383D7
:100870008283168280E28783108685E0868785E002
:1008800090E0A0E0B0E0848B958BA68BB78B1186AF
:100890000895EE0FFF1F0590F491E02D0994F89450
:0208A000FFCF88
:0408A200434E43007E
:00000001FF
