:100000000C9460000C9488000C9488000C94880078
:100010000C94D9020C94B2020C9488000C948800C1
:100020000C9488000C9488000C9488000C94880030
:100030000C9488000C9488000C9488000C94880020
:100040000C9468020C9488000C9488000C9488002E
:100050000C9488000C9488000C9488000C94880000
:100060000C9488000C948800000102030405000031
:100070000008000201000003040700000000000067
:10008000000000000000250028002B0000000000F8
:10009000240027002A0004040404040404040202C7
:1000A00002020202030303030303010204081020F7
:1000B0004080010204081020010204081020750489
:1000C00011241FBECFEFD8E0DEBFCDBF21E0A4E0FA
:1000D000B1E001C01D92A832B207E1F711E0A0E043
:1000E000B1E0EEE2F9E002C005900D92A430B10754
:1000F000D9F710E0C0E6D0E004C02197FE010E94CD
:100100008F04CF35D107C9F70E9400030C949504E2
:100110000C94000090E0FC01E655FF4F2491FC0197
:10012000EA56FF4F8491882399F090E0880F991F39
:10013000FC01E457FF4FA591B491FC01EE57FF4F2E
:10014000859194918FB7F894EC91E22BEC938FBF4B
:10015000089590E0FC01E259FF4F3491FC01E6550F
:10016000FF4F2491FC01EA56FF4FE491EE2309F47E
:100170003BC0332339F1333091F038F43130A9F0FA
:10018000323001F584B58F7D12C0373091F03830B0
:10019000A1F03430B9F4809180008F7D03C080914C
:1001A00080008F77809380000DC084B58F7784BDE9
:1001B00009C08091B0008F7703C08091B0008F7D1F
:1001C0008093B000F0E0EE0FFF1FEE57FF4FA591B8
:1001D000B4918FB7F894EC91611103C020952E2350
:1001E00001C02E2B2C938FBF0895209110013091C8
:1001F000110140911201509113012417350721F08C
:10020000682F822F0C94A90008958230910538F050
:10021000880F991F880F991F05970197F1F7089587
:100220003FB7F89480910A0190910B01A0910C01C5
:10023000B0910D0126B5A89B05C02F3F19F001967E
:10024000A11DB11D3FBFBA2FA92F982F8827820F5C
:10025000911DA11DB11DBC01CD0142E0660F771FAC
:10026000881F991F4A95D1F708958F929F92AF9258
:10027000BF92CF92DF92EF92FF920E9410014B014A
:100280005C0185E0C82ED12CE12CF12C0E941001DC
:10029000DC01CB0188199909AA09BB09883E934062
:1002A000A105B10558F021E0C21AD108E108F10812
:1002B00088EE880E83E0981EA11CB11CC114D104E5
:1002C000E104F10419F7FF90EF90DF90CF90BF9019
:1002D000AF909F908F9008958EBD00000DB407FEE3
:1002E000FDCF8EB50895CF93DF939CB59F7D9CBDC8
:1002F0009CB5937F9CBD9CB59C7F9CBD9DB591603A
:100300009DBDC0E1D1E0682F8A810E94A9008C893F
:100310009D89DF91CF910C94050181E00C947301CC
:100320001F93CF93DF931F92CDB7DEB7182F80E0D6
:100330000E947301812F8F710E946C018FEF0E94C8
:100340006C0189830E948D0189810F90DF91CF918B
:100350001F9108951F93CF93DF931F92CDB7DEB700
:10036000182F80E069830E947301812F8F71806252
:100370000E946C01182F6981862F0E946C010E94D7
:100380008D01812F0F90DF91CF911F9108950F93D1
:100390001F93CF938C0186E00E949001C82FC77DE8
:1003A0000230110531F4C0628BE990E0A0E0B0E0CA
:1003B0000DC00130110529F085E590E0A0E0B0E026
:1003C00005C0C86081E490E0A0E0B0E08093200127
:1003D00090932101A0932201B09323016C2F86E01A
:1003E0000E94AA0186E00E94900191E08C1390E0A7
:1003F000892FCF911F910F910895CF93DF931F9273
:10040000CDB7DEB780E00E94730181EE0E946C01DF
:1004100089830E948D0189810F90DF91CF9108958A
:10042000EF92FF920F931F93CF93DF931F92CDB75D
:10043000DEB790911701F92E933010F082E0F82E7C
:1004400080911801811103C0E92EEF1801C0E12C41
:1004500080E00E94730180EA0E946C010EE011E0CE
:10046000FA94FFEFFF1631F0F80181918F010E949D
:100470006C01F6CFEE2029F080E00E946C01EA9436
:10048000F9CF0E948D0181E00E94F50080E00E947A
:1004900073018FEF0E946C0189830E948D01898115
:1004A0008073A1F380E00E94F50060E787E00E947E
:1004B000AA0184FF04C00E94FD0180E001C081E028
:1004C0000F90DF91CF911F910F91FF90EF900895C2
:1004D0001F920F920FB60F9211242F933F938F9379
:1004E0009F93AF93BF938091060190910701A091D4
:1004F0000801B09109013091050123E0230F2D3748
:1005000020F40196A11DB11D05C026E8230F029617
:10051000A11DB11D20930501809306019093070151
:10052000A0930801B093090180910A0190910B01F9
:10053000A0910C01B0910D010196A11DB11D8093F8
:100540000A0190930B01A0930C01B0930D01BF9190
:10055000AF919F918F913F912F910F900FBE0F9070
:100560001F9018951F920F920FB60F9211242F9380
:100570003F934F935F936F937F938F939F93AF932B
:10058000BF93EF93FF9389B180930F010E941002F4
:10059000FF91EF91BF91AF919F918F917F916F915B
:1005A0005F914F913F912F910F900FBE0F901F9031
:1005B00018951F920F920FB60F9211242F933F930D
:1005C0004F935F936F937F938F939F93AF93BF935B
:1005D000EF93FF9386B180930E010E941002FF916A
:1005E000EF91BF91AF919F918F917F916F915F91AB
:1005F0004F913F912F910F900FBE0F901F90189524
:10060000789484B5826084BD84B5816084BD85B5ED
:10061000826085BD85B5816085BD80916E008160F9
:1006200080936E001092810080918100826080939F
:1006300081008091810081608093810080918000A1
:100640008160809380008091B10084608093B100CC
:100650008091B00081608093B00080917A008460C6
:1006600080937A0080917A00826080937A008091F2
:100670007A00816080937A0080917A00806880930C
:100680007A001092C1008BB18C6F8BB980916D0094
:100690008C6F80936D0088B18F6088B980916C00F9
:1006A0008F6080936C008091680086608093680002
:1006B000809110019091110120911201309113014C
:1006C0008217930711F00E948A0080911201909185
:1006D000130120911001309111012817390711F0F1
:1006E0000E948A00CFB7F89480910401811124C040
:1006F000E0EAF0E08491E4EBF0E09491E82FF0E0A0
:10070000EE0FFF1FE457FF4FA591B491EC91E92341
:1007100021F461E08AE00E94A9008AE00E948A0038
:100720008CB580618CBD8CB580648CBD8DE00E94E1
:100730008A008BE00E948A00809104018F5F809381
:100740000401CFBF80E00E94F50081E00E947301A8
:100750000E9435016CE080E00E94AA016FE584E010
:100760000E94AA0182E090E00E94C701882319F04C
:1007700081E08093160186E00E94900180E090E085
:100780000E94C70180E00E94730180E50E946C0115
:1007900083E70E946C010E948D0160E08DE10E9460
:1007A000AA0160E08CE10E94AA011092180160E7A2
:1007B00087E00E94AA016CE485E00E94AA0180E023
:1007C0000E94730182EE0E946C010E948D010E94C2
:1007D000FD0180E00E94900181FD07C0682F6260EA
:1007E00080E00E94AA010E94350180E00E949001F1
:1007F000682F6E7F80E00E94AA0182E0809317013B
:1008000061E083E00E94AA0183E080931E0162E31D
:1008100085E00E94AA0181E090E00E94C70161E0AA
:1008200084E00E94AA01F0901E0180E00E94730102
:100830008AE20E946C01C0E0D1E08E01EC2EFC0E39
:10084000F01631F0F80181918F010E946C01F8CF10
:100850000E948D0110911E0180E00E94730180E3CF
:100860000E946C011E0D1C1721F089910E946C01E1
:10087000FACF0E948D016091170181E10E94AA01C7
:1008800080E00E94F50080912001909121010E945A
:1008900005018DE10E94900181FF08C08091200137
:1008A000909121010E9405010E94FD0180E00E94BB
:1008B0009001682F6E7F80E00E94AA0182E00E9472
:1008C0009001E8E6F0E0E49161E070E001C0660FBD
:1008D000EA95EAF7682B82E00E94AA01C0E0D0E026
:1008E0002097F1F30E940000FBCFE0E1F1E089E006
:1008F00090E0918380838AE090E0938382831682E4
:1009000080E28783108685E0868785E090E0A0E01E
:10091000B0E0848B958BA68BB78B11860895EE0F74
:0E092000FF1F0590F491E02D0994F894FFCF8D
:04092E00434E4300F1
:00000001FF
