:100000000C9460000C947D000C947D000C947D0099
:100010000C94CE020C94A7020C947D000C947D00ED
:100020000C947D000C947D000C947D000C947D005C
:100030000C947D000C947D000C947D000C947D004C
:100040000C945D020C947D000C947D000C947D005A
:100050000C947D000C947D000C947D000C947D002C
:100060000C947D000C947D00000102030405000047
:100070000008000201000003040700000000000067
:10008000000000000000250028002B0000000000F8
:10009000240027002A0004040404040404040202C7
:1000A00002020202030303030303010204081020F7
:1000B000408001020408102001020408102081047D
:1000C00011241FBECFEFD8E0DEBFCDBF21E0A0E0FE
:1000D000B1E001C01D92A432B207E1F710E0C0E622
:1000E000D0E004C02197FE010E949B04CF35D107C8
:1000F000C9F70E94F5020C94A1040C94000090E052
:10010000FC01E655FF4F2491FC01EA56FF4F849114
:10011000882399F090E0880F991FFC01E457FF4F66
:10012000A591B491FC01EE57FF4F859194918FB743
:10013000F894EC91E22BEC938FBF089590E0FC01D2
:10014000E259FF4F3491FC01E655FF4F2491FC0129
:10015000EA56FF4FE491EE2309F43BC0332339F113
:10016000333091F038F43130A9F0323001F584B5F4
:100170008F7D12C0373091F03830A1F03430B9F4AF
:10018000809180008F7D03C0809180008F77809365
:1001900080000DC084B58F7784BD09C08091B00008
:1001A0008F7703C08091B0008F7D8093B000F0E026
:1001B000EE0FFF1FEE57FF4FA591B4918FB7F89444
:1001C000EC91611103C020952E2301C02E2B2C939E
:1001D0008FBF089520910C0130910D0140910E01C7
:1001E00050910F012417350721F0682F822F0C94AE
:1001F0009E0008958230910538F0880F991F880F6E
:10020000991F05970197F1F708953FB7F8948091EA
:10021000060190910701A0910801B091090126B54E
:10022000A89B05C02F3F19F00196A11DB11D3FBF2E
:10023000BA2FA92F982F8827820F911DA11DB11DBC
:10024000BC01CD0142E0660F771F881F991F4A95B8
:10025000D1F708958F929F92AF92BF92CF92DF9283
:10026000EF92FF920E9405014B015C0185E0C82ED0
:10027000D12CE12CF12C0E940501DC01CB01881965
:100280009909AA09BB09883E9340A105B10558F018
:1002900021E0C21AD108E108F10888EE880E83E057
:1002A000981EA11CB11CC114D104E104F10419F77A
:1002B000FF90EF90DF90CF90BF90AF909F908F9086
:1002C00008958EBD00000DB407FEFDCF8EB50895D4
:1002D000CF93DF939CB59F7D9CBD9CB5937F9CBDC8
:1002E0009CB59C7F9CBD9DB591609DBDCCE0D1E04F
:1002F000682F8A810E949E008C899D89DF91CF9111
:100300000C94FA0081E00C9468011F93CF93DF9363
:100310001F92CDB7DEB7182F80E00E946801812FB1
:100320008F710E9461018FEF0E94610189830E9499
:10033000820189810F90DF91CF911F9108951F93C2
:10034000CF93DF931F92CDB7DEB7182F80E069837C
:100350000E946801812F8F7180620E946101182FB5
:100360006981862F0E9461010E948201812F0F9076
:10037000DF91CF911F9108950F931F93CF938C011D
:1003800086E00E948501C82FC77D0230110531F437
:10039000C0628BE990E0A0E0B0E00DC00130110533
:1003A00029F085E590E0A0E0B0E005C0C86081E4F8
:1003B00090E0A0E0B0E080931C0190931D01A09319
:1003C0001E01B0931F016C2F86E00E949F0186E002
:1003D0000E94850191E08C1390E0892FCF911F91AD
:1003E0000F910895CF93DF931F92CDB7DEB780E0D2
:1003F0000E94680181EE0E94610189830E9482014E
:1004000089810F90DF91CF910895EF92FF920F9322
:100410001F93CF93DF931F92CDB7DEB79091130157
:10042000F92E933010F082E0F82E809114018111A2
:1004300003C0E92EEF1801C0E12C80E00E946801A2
:1004400080EA0E9461010AE011E0FA94FFEFFF16D2
:1004500031F0F80181918F010E946101F6CFEE2009
:1004600029F080E00E946101EA94F9CF0E948201A4
:1004700081E00E94EA0080E00E9468018FEF0E9404
:10048000610189830E94820189818073A1F380E0E8
:100490000E94EA0060E787E00E949F0184FF04C099
:1004A0000E94F20180E001C081E00F90DF91CF91C6
:1004B0001F910F91FF90EF9008951F920F920FB62A
:1004C0000F9211242F933F938F939F93AF93BF93DA
:1004D0008091020190910301A0910401B091050166
:1004E0003091010123E0230F2D3720F40196A11D47
:1004F000B11D05C026E8230F0296A11DB11D209352
:1005000001018093020190930301A0930401B09331
:1005100005018091060190910701A0910801B09119
:1005200009010196A11DB11D809306019093070159
:10053000A0930801B0930901BF91AF919F918F9152
:100540003F912F910F900FBE0F901F9018951F9203
:100550000F920FB60F9211242F933F934F935F93F7
:100560006F937F938F939F93AF93BF93EF93FF937B
:1005700089B180930B010E940502FF91EF91BF9119
:10058000AF919F918F917F916F915F914F913F912B
:100590002F910F900FBE0F901F9018951F920F92E2
:1005A0000FB60F9211242F933F934F935F936F9346
:1005B0007F938F939F93AF93BF93EF93FF9386B1F6
:1005C00080930A010E940502FF91EF91BF91AF91C4
:1005D0009F918F917F916F915F914F913F912F915B
:1005E0000F900FBE0F901F901895CF93DF93CDB74C
:1005F000DEB728970FB6F894DEBF0FBECDBF789454
:1006000084B5826084BD84B5816084BD85B5826017
:1006100085BD85B5816085BD80916E0081608093C8
:100620006E00109281008091810082608093810031
:100630008091810081608093810080918000816041
:10064000809380008091B10084608093B10080919C
:10065000B00081608093B00080917A0084608093C4
:100660007A0080917A00826080937A0080917A008B
:10067000816080937A0080917A00806880937A000C
:100680001092C1008BB18C6F8BB980916D008C6F13
:1006900080936D0088B18F6088B980916C008F6005
:1006A00080936C00809168008660809368008091E0
:1006B0000C0190910D0120910E0130910F018217D4
:1006C000930711F00E947F0080910E0190910F011D
:1006D00020910C0130910D012817390711F00E946B
:1006E0007F001FB7F89480910001811124C0E0EAD7
:1006F000F0E08491E4EBF0E09491E82FF0E0EE0F6D
:10070000FF1FE457FF4FA591B491EC91E92321F429
:1007100061E08AE00E949E008AE00E947F008CB522
:1007200080618CBD8CB580648CBD8DE00E947F00A3
:100730008BE00E947F00809100018F5F8093000119
:100740001FBF80E00E94EA0081E00E9468010E94D1
:100750002A016CE080E00E949F016FE584E00E9426
:100760009F0182E090E00E94BC01882319F081E0A3
:100770008093120186E00E94850180E090E00E9453
:10078000BC0180E00E94680180E50E94610183E76E
:100790000E9461010E94820160E08DE10E949F0140
:1007A00060E08CE10E949F011092140160E787E0F5
:1007B0000E949F016CE485E00E949F0180E00E94FE
:1007C000680182EE0E9461010E9482010E94F20192
:1007D00080E00E94850181FD07C0682F626080E093
:1007E0000E949F010E942A0180E00E948501682FDB
:1007F0006E7F80E00E949F0182E08093130161E0A0
:1008000083E00E949F0183E080931A0162E385E008
:100810000E949F0181E090E00E94BC0161E084E0C1
:100820000E949F018FEE89831A821B821C821D8287
:100830001E821F821886D0901A0180E00E946801F3
:100840008AE20E9461018E010F5F1F4F7801C02E66
:10085000D00EDE1431F0F70181917F010E94610119
:10086000F8CF0E948201F0901A0180E00E94680196
:1008700080E30E946101FC0CF01631F0F8018191D7
:100880008F010E946101F8CF0E94820160911301E3
:1008900081E10E949F0180E00E94EA0080911C019A
:1008A00090911D010E94FA008DE10E94850181FF57
:1008B00008C080911C0190911D010E94FA000E94C5
:1008C000F20180E00E948501682F6E7F80E00E9427
:1008D0009F0182E00E948501E8E6F0E0E49161E09A
:1008E00070E001C0660FEA95EAF7682B82E00E948B
:1008F0009F0100E010E001151105E9F30E940000DE
:10090000FACFECE0F1E089E090E0918380838AE027
:1009100090E093838283168280E28783108685E04D
:10092000868785E090E0A0E0B0E0848B958BA68B75
:10093000B78B11860895EE0FFF1F0590F491E02DFF
:060940000994F894FFCFBA
:00000001FF
